:1000000017C078C333C176C375C374C373C372C3D7
:1000100071C370C3DAC26EC36DC36CC331C00060FC
:1000200000AA8000AA00AB0006FE00AB00B2800070
:1000300011241FBECFE5D2E0DEBFCDBFEEE1F0E080
:1000400040E017C0B591A59135912591059107FD27
:100050000CC095918591EF01F92FE82F05900D9235
:10006000A217B307D9F7FE0104C01D92A217B30768
:10007000E1F7EF32F40731F79ED135C3F894FFCFA3
:100080001F921FB61F9211248F939F93EF93FF939C
:1000900080EE8EB98091B1008770843009F48DC0F4
:1000A00028F4823051F0833081F1D8C0853009F4D2
:1000B00097C0863009F4A7C0D1C08091B100887F75
:1000C00083608093B1008091AB00803168F4E0914F
:1000D000AD00F0E080B3EE0FFF1FE05AFF4F8083CA
:1000E0008EB18D608EB909C08091B100806180931E
:1000F000B10098B384E0892788BB8091B10083FF69
:10010000ADC08FB181708FB9A9C0809B18C080919C
:10011000B10084FD14C0E091AD00F0E080B3EE0FBB
:10012000FF1FE05AFF4F81838091AD008F5F8F707A
:100130008093AD008091AB008F5F8093AB00809186
:10014000B10083FF12C08091B100887F84608093EA
:10015000B1008EB18E608EB98FB18F678FB98091EB
:10016000B100877F8093B10021C08091AE008823C9
:10017000A1F08091B100887F85608093B100E0910B
:10018000AF00F0E0EE0FFF1FE058FF4F80818FB906
:100190008EB189608EB9B99A09C08091B100887F0B
:1001A0008093B10013BE1DB8C19AB99880E28ABF8E
:1001B0008BB780628BBFA89A51C08091B100887FB5
:1001C00085608093B100E091AF00F0E0EE0FFF1F7B
:1001D000E058FF4F80818FB98EB189608EB93EC0E3
:1001E0008091B100887F86608093B100E091AF007C
:1001F000F0E0EE0FFF1FE058FF4F81818FB98EB105
:100200008C608EB92BC08091AF008F5F8F70809310
:10021000AF008091AE0081508093AE008091AE001F
:10022000882399F08091B100887F85608093B10028
:10023000E091AF00F0E0EE0FFF1FE058FF4F80812C
:100240008FB98EB189608EB909C08091B100887F65
:100250008093B10013BEC19AB9981DB8FF91EF9178
:0C0260009F918F911F901FBE1F9018955A
:10026C001F921FB61F9211248F93B09950C080918A
:10027C00B1008770843049F08091B100877085306F
:10028C0031F48EB18F70893011F4B99828C08091F7
:10029C00B1008770863089F48EB18F708F3069F41D
:1002AC008091AF008F5F8F708093AF008091AE0014
:1002BC0081508093AE00B99812C08091B1008770C4
:1002CC00853029F08091B1008770863041F48FB170
:1002DC0081708FB98091B10088608093B10083B731
:1002EC00877019F482E08ABD83BF12BE87E289BD94
:1002FC0088B7806188BF89B7806189BF8BB78F7DD4
:10030C008BBF8091B100887F81608093B1008F9109
:08031C001F901FBE1F901895F1
:10032400BCD19091AE009031E1F3E091B000F0E0E7
:10033400982F969596959068EE0FFF1FE058FF4F03
:100344009083E091B000F0E08295880F807E8F6109
:10035400EE0FFF1FE058FF4F81838091B0008F5F45
:100364008F708093B0008091AE008F5F8093AE0059
:100374008091B1008770E1F4F89482E08ABD83BF74
:1003840012BE87E689BD84E58DB9E091AF00F0E047
:10039400EE0FFF1FE058FF4F80818FB989EE8EB9B1
:1003A400B99A8091B100887F85608093B100789478
:0203B4000895AA
:1003B60000004BD1B6D0882319F08AEA8093AA00B0
:1003C600BA9AC29A79D120D1000014E0D1E081D145
:1003D6008823E9F07BD0C82F8091A700811108C03F
:1003E600CA35A9F4D093A7008091AA0098DF0FC060
:1003F6008C2F40D1882359F0CBBD88B3812788BB89
:10040600D093A600D093A7008091AA0088DF05D0DC
:0A0416008823E9F22FD0AED0DACF30
:1004200008B602FE28C088B7846088BF8091A0000B
:100430009091A100A091A200B091A3000196A11DEE
:10044000B11D8C352BE29207A105B10550F48093C4
:10045000A0009093A100A093A200B093A30080E01D
:1004600008951092A0001092A1001092A200109284
:0A047000A30081E0089580E00895E4
:10047A008091A700813019F08230C1F008958091EF
:10048A00A600882329F01092A5001092A6000895CC
:10049A00C2988091A5008F5F8093A5008A3098F05A
:1004AA008AE58BBD82E08093A70008958091A4001D
:1004BA008F5F8093A4008A3030F098B384E0892754
:0804CA0088BB1092A400089504
:1004D2008091AB008823E1F3E091AC00F0E0EE0FF5
:1004E200FF1FE05AFF4F8081E091AC00F0E0EE0F79
:1004F200FF1FE05AFF4F91819F709695880F880FDA
:10050200892BCCD09091AC009F5F9F709093AC00F0
:100512009091AB0091509093AB009091B1009F7E6F
:060522009093B100089562
:10052800BB98C39A2FE73BE288E1215030408040D6
:10053800E1F700C0000081E080FF03C0B39B03C067
:1005480012C0B39B12C0863091F09FE324E834E0D8
:10055800915020403040E1F700C000008F5F8730A5
:1005680059F781E0089580E0089580E0089581E0DA
:020578000895E4
:10057A00B39913C08091AA008A3A79F41092A8001C
:10058A008091A9008F5F8093A9008530C0F08AE529
:10059A008BBD8CEC8093AA000895B39B10C0809108
:1005AA00AA008C3C61F41092A9008091A8008F5F88
:1005BA008093A800833018F08AEA8093AA000895ED
:1005CA001F921FB61F9211248F9312BE87E689BD10
:1005DA008091B10083FF04C08FB181708FB902C0CE
:1005EA0084E58DB98AEE8EB989B78F7E89BF8091ED
:1005FA00B100887F82608093B1008F911F901FBEE7
:04060A001F90189590
:10060E008091B1008770E1F7F89488B3836088BB5E
:10061E00B9981DB880E28ABF8BB780628BBFA89A4B
:10062E008091B100887F8093B1008091B100877F67
:10063E008093B1008091B1008F7E8093B100789449
:02064E0008950D
:1006500087B5826087BD07B400FEFDCF87B5846093
:1006600087BD8CB580668CBD8FEF8DBD8AE58BBD57
:0A067000BC9A80B7816080BF089536
:10067A0098EE980F9D3248F08A3549F0805791E0FC
:10068A008C3708F090E0892F03C081E001C081E037
:04069A0081700895CE
:10069E00982F96959575880F8A7A982B892F86951F
:1006AE0086958373990F990F9C7C892B829508955B
:1006BE001092AC001092AD001092AB001092AF00F1
:0A06CE001092B0001092AE000895E3
:0E06D8009091AB0081E0911101C080E0089587
:0E06E600EC0107D005D0CE0105D0CE0104D026
:0206F40085CCB3
:0206F600089565
:0206F800089563
:0206FA00089561
:0206FC00BFDC61
:0106FE00BB40
:00000001FF
