:1000000093CA15C0EBCA13C012C011C010C00FC0F4
:100010000EC00DC00CC00BC00AC009C008C011241E
:100020001FBECFE5D2E0DEBFCDBF02D002C0E8CF19
:10003000FFCFF89400C0F894FFCF0000000000004C
:10004000FFFFFFFFFFFFFFFFFFFFFFFFFFFFFFFFC0
:10005000FFFFFFFFFFFFFFFFFFFFFFFFFFFFFFFFB0
:10006000FFFFFFFFFFFFFFFFFFFFFFFFFFFFFFFFA0
:10007000FFFFFFFFFFFFFFFFFFFFFFFFFFFFFFFF90
:1014B000FFFFFFFFFFFFFFFFFFFFFFFFB8C5AFC547
:1014C00033C05FC08BC05DC05CC05BC05AC059C038
:1014D00058C057C056C055C054C053C052C009026E
:1014E0001200010100803209040000000000000029
:1014F00012011001FF00000881179F0C0501010275
:10150000000110035400720069006E006B0065005A
:1015100074001203410064006100660072007500EF
:10152000690074000403090411241FBECFE5D2E052
:10153000DEBFCDBF84B7877F84BF88E10FB6F89444
:1015400081BD11BC0FBE91E080E80FB6F89486BD56
:1015500096BD0FBE0AEA0F9310E0A0E6B0E0EEEDF4
:10156000FFE102C005900D92A236B107D9F711E054
:10157000A2E6B0E001C01D92A832B107E1F7F2D3B4
:101580002CC59ECFA82FB92F80E090E041E050EA13
:10159000609530E009C02D9182279795879510F0CE
:1015A00084279527305EC8F36F5FA8F30895EADFBC
:1015B0008D939D930895A6E088279927AA9569F0B1
:1015C0000197E1F3B399FCCFB39BFECF81E099275C
:1015D000A6B3019611F0A871D9F70895CF93CFB7AC
:1015E000CF93C0915F02CA3A21F0CF91CFBFCF9184
:1015F00065CFCC27C395B39BE9F7B39B0BC0B39BD7
:1016000009C0B39B07C0B39B05C0B39B03C0B39B8A
:1016100001C0D3C00F92DF93C0910B01DD27CE5ED6
:10162000DE4F012EB39B03C0DF910F90E6CF2F93C7
:101630000F931F934F932FEF4F6F06B303FB20F9C8
:101640005F933F9350E03BE065C016B301265029FD
:1016500053FDC89556B3012703FB25F92F7306B335
:10166000B1F05027102713FB26F906B22230F0F014
:1016700000C016B3012703FB27F90126502906B243
:101680002430E8F54F77206816B30000F6CF5027D6
:101690004F7D206206B2102F000000C006B3002666
:1016A0005029102713FB26F906B2E2CF4F7B06B371
:1016B000206400C0DACF01265029187106B269F102
:1016C0004E7F2160012F16B328C0002650294D7F80
:1016D00006B22260102F29C0012650294B7F06B286
:1016E0002460012F2DC016B301265029477F2860A2
:1016F000000006B22EC04F7E06B3206130C04227E4
:1017000006B3499300265029102706B24FEF13FB6A
:1017100020F9297F16B379F2187159F10126502961
:1017200006B2012703FB21F9237F06B371F20026DD
:1017300050293150D0F006B2102713FB22F9277E32
:1017400016B351F201265029012703FB06B223F9F3
:101750002F7C49F2000006B3102713FB24F9002662
:10176000502906B22F7939F270CF10E21ABF002744
:1017700017C03B503195C31BD04010E21ABF0881FF
:10178000033CF9F00B34E9F0209109011981110FA4
:101790001213EDCF093651F10D3211F0013E39F738
:1017A000009310013F915F914F911F910F912F91E5
:1017B000DF910F90CAB7C5FD1DCFCF91CFBFCF919D
:1017C000189520911001222369F310910E01112325
:1017D00021F5343022F130930E0120930A0110914B
:1017E0000B013BE0311B30930B0119C000910E013E
:1017F00001309CF40AE53091600034FD11C0009383
:101800006000CEEFD0E010C0052710E000C021C07E
:10181000052710E0C89508BB14C03AE501C032EDB9
:10182000032EC0E0D0E032E017B31861C39A08B3CA
:1018300017BB58E120E84FEF20FF052708BB27958D
:1018400017951C3F28F700004552B0F720FF0527E9
:10185000279508BB17951C3FB8F629913A9561F773
:10186000077E10910F01110F08BBC250D04011F03C
:101870001093090110E21ABF086017B3177E402FBA
:10188000477E54E05A95F1F708BB17BB48BB8ACF97
:1018900020916F00309170002D3B3441B8F421E06D
:1018A00020937100F894E0916F00F09170000C01AA
:1018B00020935700E8951124789480916F009091BF
:1018C000700002969093700080936F00089580914D
:1018D0007100882309F43CC080916F0090917000E2
:1018E000813C944108F034C0F89480916F0090914D
:1018F00070008238944110F121E080917200909143
:1019000073008F559A409F70906CEEEBF4E10C01E0
:1019100020935700E895112480917A0090917B00E4
:101920008C559A409F70906CECEBF4E10C01209385
:101930005700E8951124789420936E00E0916F0091
:10194000F0917000329785E080935700E895789485
:10195000109271000895FF920F931F93CF93DF931E
:1019600080910E01835087FD4EC190910B01ACE038
:10197000B0E0A91BB109AE5EBE4F31E0309362000A
:1019800090910A019D3209F0FBC0883009F039C1FD
:1019900083EC8093FE008AE5809360001092F20051
:1019A0008C91807609F478C010926C0010926B00D4
:1019B00010926A0011962C911197213009F4C5C13B
:1019C000263009F447C0273009F042C03093670041
:1019D00083EF90E090930D0180930C0113969C91FE
:1019E00013979093F5001092F60012968C9112972F
:1019F000803379F49111ABC11496EC911497F0E017
:101A0000EE0FFF1F81E280935700E491E093F60010
:101A10009EC18C3A89F4903809F099C114968C9142
:101A20001497811194C115968C91159781118FC1CE
:101A300081E0809363008BC18C3409F088C11596D6
:101A40008C911597811183C181E0809366007FC1DD
:101A5000283019F4309367007CC114968D919C91C5
:101A600015979093700080936F0016968C9116973F
:101A70008093FB00822F8950843008F06AC18FE781
:101A800088BD309368002093FC002A3009F458C1C7
:101A900081E08093670054C112969C911297109236
:101AA000070111968C911197811106C010920801BF
:101AB00087E091E022E04CC0853019F490930F014B
:101AC0003DC0863091F513968C911397813019F4AF
:101AD00080EF94E104C0823041F48EED94E1909364
:101AE0000D0180930C0122E11CC08330C9F49111D7
:101AF00008C084E295E190930D0180930C0124E0ED
:101B000010C0913019F482E195E1E9CF923041F4AF
:101B100082E095E190930D0180930C0120E101C0DA
:101B200020E080E48093F2001EC0883059F08930B4
:101B300019F49093110102C08A3039F087E091E0E6
:101B400020E006C081E191E002C087E091E021E061
:101B500090930D0180930C0106C016962C9180E89D
:101B60008093F2000AC017968C911797811105C0D7
:101B700016968C91821708F4282F2093610041C09B
:101B80009091F20097FF3DC09091FB00182F98179D
:101B900008F4192F092F011B0093FB001092670016
:101BA0008091FC008C3019F4002349F12AC08A305E
:101BB000D9F7FA2ECA2FDB2F1DC080916F009091AC
:101BC00070008034910590F421E020936D00FC01B9
:101BD000EE0FFF1FEE58FF4F28813981318320839C
:101BE00002969093700080936F0003C08881998162
:101BF0004FDE22968C2F8F198117F8F2D5CF1092D5
:101C0000610010920E018091600084FF80C080917D
:101C100061008F3F09F47BC0182F893008F018E06D
:101C2000811B809361008091FE0098E88927809352
:101C3000FE00112309F45AC08091F20087FF38C0DA
:101C40008091FB00811708F4182F811B8093FB0003
:101C50003091FC00E0916F00F091700020E0AFEF58
:101C6000B0E01FC03B3009F476C03930D9F7E0341A
:101C7000F10560F4EF01CC0FDD1FCE58DF4F8881F6
:101C800099818D939D9332962E5F0BC0EC3B84E13E
:101C9000F80710F08FEF01C084918C931196319664
:101CA0002F5F2117F8F2F0937000E0936F001CC0D3
:101CB000E0910C01F0910D01AFEFB0E086FF09C09B
:101CC00084918D9331968FEF90E0810F8A13F8CF36
:101CD00007C081918D938FEF90E0810F8A13F9CF28
:101CE000F0930D01E0930C01193058F4612F8FEF40
:101CF00090E05DDC1C5F1C3041F08FEF8093610051
:101D000004C08FEF809361001EE11093600084E1B6
:101D100096B3987131F48150D9F710920F01109257
:101D20000901C1E08111C0E08091FD008C17A1F094
:101D3000C11103C0F8940FD17894C093FD000CC07A
:101D40008C9187FD0ACF2FEF0ACF21E00CCF24E042
:101D50000ACF20E008CFFFCFDF91CF911F910F91E5
:101D6000FF900895C1B7B99A83E28ABD81E083BF2D
:101D70008BB780628BBFAC9ABB9A2FE132E18AE0CD
:101D8000215030408040E1F700C00000BB987894BB
:101D9000E2DD80916300882321F182E090E090935E
:101DA00065008093640013C0CF018F739927892B3E
:101DB00021F483E080935700E895CDDD80916400A5
:101DC0009091650002969093650080936400E09185
:101DD0006400F0916500E03C94E1F90728F310926B
:101DE000630080916600882329F0B5DD70DD1092D4
:101DF0006600B1DD80916200882341F08091670028
:101E0000811104C0809168008111C2CF809162006D
:101E1000882371F08091690081110AC088B5805FC4
:101E200088BD88B5811104C08AB590E189278ABD33
:101E3000809169008F5F809369008EEC90E001973C
:101E4000F1F780916A0090916B00019690936B007E
:101E500080936A0020916C00009711F42F5F00C0FE
:101E600020936C0030916200311105C081323EE454
:101E7000930708F05BC030916700332321F0813174
:101E8000974208F053C080916200882309F480CF04
:101E90008091680081117CCF233008F047C078CF53
:101EA00080916E0081114AC08CEB94E19093700098
:101EB00080936F0081E08093710009DD3FC0DF01F6
:101EC000AA0FBB1FAE58BF4F8D919C91309719F050
:101ED000E430F10531F4E054FB4E85919491805A41
:101EE000954FD6DCE0916F00F0917000E034F10581
:101EF00030F3EDDC10925F0217BA13BE1ABC03C0B8
:101F000081B78F5F81BF81B78C17D0F303C081B7D2
:101F1000815081BF81B7C817D0F391E080E80FB638
:101F2000F89486BD96BD0FBECACA13C01BBE15BAB3
:101F3000F89480916D008111B3CFDCCFE0E0F0E048
:101F400083E080935700E8951092700010926F0024
:101F5000C9CF80E090E0FF920F931F93CF93DF9360
:101F600090E080E80FB6F89486BD96BD0FBEC8E03D
:101F7000D0E010E000E8F12EF00EF1BE1CDB84335F
:101F800029E092070CF41F2D06952197A1F7212F28
:101F9000215021BFEC01012F10C00DDB845399406B
:101FA00097FF03C09195819591098C179D0714F4B3
:101FB00001B7EC0181B78F5F81BF81B790E0212F1E
:101FC00030E02F5F3F4F281739073CF701BFDF9103
:101FD000CF911F910F91FF900895F894FFCF5AFF72
:101FE000FFFFFFFFFFFFFFFFFFFFFFFFFFFFFFFF01
:101FF000FFFFFFFFFFFFFFFFFFFFFFFFFFFFFFFFF1
:00000001FF
